{
    "_format": "hh-sol-artifact-1",
    "contractName": "Todo",
    "sourceName": "contracts/Todo.sol",
    "abi": [
        {
            "inputs": [],
            "stateMutability": "nonpayable",
            "type": "constructor"
        },
        {
            "inputs": [
                {
                    "internalType": "bytes32",
                    "name": "hash",
                    "type": "bytes32"
                }
            ],
            "name": "DeletePrivate",
            "outputs": [],
            "stateMutability": "nonpayable",
            "type": "function"
        },
        {
            "inputs": [
                {
                    "internalType": "string",
                    "name": "_t",
                    "type": "string"
                },
                {
                    "internalType": "string",
                    "name": "_d",
                    "type": "string"
                }
            ],
            "name": "PrivateAdd",
            "outputs": [],
            "stateMutability": "nonpayable",
            "type": "function"
        },
        {
            "inputs": [
                {
                    "internalType": "string",
                    "name": "_t",
                    "type": "string"
                },
                {
                    "internalType": "string",
                    "name": "_d",
                    "type": "string"
                }
            ],
            "name": "PublicAdd",
            "outputs": [],
            "stateMutability": "payable",
            "type": "function"
        },
        {
            "inputs": [
                {
                    "internalType": "uint256",
                    "name": "",
                    "type": "uint256"
                }
            ],
            "name": "data1",
            "outputs": [
                {
                    "internalType": "string",
                    "name": "title",
                    "type": "string"
                },
                {
                    "internalType": "string",
                    "name": "desc",
                    "type": "string"
                },
                {
                    "internalType": "bytes32",
                    "name": "txHash",
                    "type": "bytes32"
                }
            ],
            "stateMutability": "view",
            "type": "function"
        },
        {
            "inputs": [
                {
                    "internalType": "address",
                    "name": "",
                    "type": "address"
                }
            ],
            "name": "map",
            "outputs": [
                {
                    "internalType": "uint256",
                    "name": "",
                    "type": "uint256"
                }
            ],
            "stateMutability": "view",
            "type": "function"
        },
        {
            "inputs": [],
            "name": "showAll",
            "outputs": [
                {
                    "components": [
                        {
                            "internalType": "string",
                            "name": "title",
                            "type": "string"
                        },
                        {
                            "internalType": "string",
                            "name": "desc",
                            "type": "string"
                        },
                        {
                            "internalType": "bytes32",
                            "name": "txHash",
                            "type": "bytes32"
                        }
                    ],
                    "internalType": "struct Todo.TodoItem[]",
                    "name": "",
                    "type": "tuple[]"
                }
            ],
            "stateMutability": "view",
            "type": "function"
        },
        {
            "inputs": [],
            "name": "showMe",
            "outputs": [
                {
                    "components": [
                        {
                            "internalType": "string",
                            "name": "title",
                            "type": "string"
                        },
                        {
                            "internalType": "string",
                            "name": "desc",
                            "type": "string"
                        },
                        {
                            "internalType": "bytes32",
                            "name": "txHash",
                            "type": "bytes32"
                        }
                    ],
                    "internalType": "struct Todo.TodoItem[]",
                    "name": "",
                    "type": "tuple[]"
                }
            ],
            "stateMutability": "view",
            "type": "function"
        },
        {
            "inputs": [],
            "name": "withdraw",
            "outputs": [],
            "stateMutability": "nonpayable",
            "type": "function"
        }
    ],
    "bytecode": "0x608060405234801561001057600080fd5b50336000806101000a81548173ffffffffffffffffffffffffffffffffffffffff021916908373ffffffffffffffffffffffffffffffffffffffff160217905550611bf0806100606000396000f3fe60806040526004361061007b5760003560e01c80637f4bf3d91161004e5780637f4bf3d91461011b578063a34cc93614610146578063b721ef6e14610171578063c603cf1b146101ae5761007b565b8063103abd5b146100805780633ccfd60b146100a9578063523dbcb6146100c0578063736d159d146100dc575b600080fd5b34801561008c57600080fd5b506100a760048036038101906100a29190610f3f565b6101d7565b005b3480156100b557600080fd5b506100be610592565b005b6100da60048036038101906100d591906110b2565b610689565b005b3480156100e857600080fd5b5061010360048036038101906100fe9190611160565b610813565b6040516101129392919061121b565b60405180910390f35b34801561012757600080fd5b5061013061095d565b60405161013d91906113d2565b60405180910390f35b34801561015257600080fd5b5061015b610aea565b60405161016891906113d2565b60405180910390f35b34801561017d57600080fd5b5061019860048036038101906101939190611452565b610cb4565b6040516101a5919061148e565b60405180910390f35b3480156101ba57600080fd5b506101d560048036038101906101d091906110b2565b610ccc565b005b6000600460003373ffffffffffffffffffffffffffffffffffffffff1673ffffffffffffffffffffffffffffffffffffffff1681526020019081526020016000206000838152602001908152602001600020549050600360003373ffffffffffffffffffffffffffffffffffffffff1673ffffffffffffffffffffffffffffffffffffffff1681526020019081526020016000208054905081106102b0576040517f08c379a00000000000000000000000000000000000000000000000000000000081526004016102a7906114f5565b60405180910390fd5b600360003373ffffffffffffffffffffffffffffffffffffffff1673ffffffffffffffffffffffffffffffffffffffff1681526020019081526020016000206001600360003373ffffffffffffffffffffffffffffffffffffffff1673ffffffffffffffffffffffffffffffffffffffff1681526020019081526020016000208054905061033e9190611544565b8154811061034f5761034e611578565b5b9060005260206000209060030201600360003373ffffffffffffffffffffffffffffffffffffffff1673ffffffffffffffffffffffffffffffffffffffff16815260200190815260200160002082815481106103ae576103ad611578565b5b9060005260206000209060030201600082018160000190816103d091906117c9565b50600182018160010190816103e591906117c9565b506002820154816002015590505080600460003373ffffffffffffffffffffffffffffffffffffffff1673ffffffffffffffffffffffffffffffffffffffff1681526020019081526020016000206000600360003373ffffffffffffffffffffffffffffffffffffffff1673ffffffffffffffffffffffffffffffffffffffff168152602001908152602001600020848154811061048657610485611578565b5b906000526020600020906003020160020154815260200190815260200160002081905550600360003373ffffffffffffffffffffffffffffffffffffffff1673ffffffffffffffffffffffffffffffffffffffff1681526020019081526020016000208054806104f9576104f86118b1565b5b60019003818190600052602060002090600302016000808201600061051e9190610e98565b60018201600061052e9190610e98565b600282016000905550509055600460003373ffffffffffffffffffffffffffffffffffffffff1673ffffffffffffffffffffffffffffffffffffffff1681526020019081526020016000206000838152602001908152602001600020600090555050565b60008054906101000a900473ffffffffffffffffffffffffffffffffffffffff1673ffffffffffffffffffffffffffffffffffffffff163373ffffffffffffffffffffffffffffffffffffffff1614610620576040517f08c379a00000000000000000000000000000000000000000000000000000000081526004016106179061192c565b60405180910390fd5b60008054906101000a900473ffffffffffffffffffffffffffffffffffffffff1673ffffffffffffffffffffffffffffffffffffffff166108fc479081150290604051600060405180830381858888f19350505050158015610686573d6000803e3d6000fd5b50565b655af3107a400034116106d1576040517f08c379a00000000000000000000000000000000000000000000000000000000081526004016106c890611998565b60405180910390fd5b34600260003373ffffffffffffffffffffffffffffffffffffffff1673ffffffffffffffffffffffffffffffffffffffff168152602001908152602001600020600082825461072091906119b8565b9250508190555060008054906101000a900473ffffffffffffffffffffffffffffffffffffffff1673ffffffffffffffffffffffffffffffffffffffff166108fc349081150290604051600060405180830381858888f1935050505015801561078d573d6000803e3d6000fd5b50600160405180606001604052808481526020018381526020016000801b815250908060018154018082558091505060019003906000526020600020906003020160009091909190915060008201518160000190816107ec91906119ec565b50602082015181600101908161080291906119ec565b506040820151816002015550505050565b6001818154811061082357600080fd5b9060005260206000209060030201600091509050806000018054610846906115d6565b80601f0160208091040260200160405190810160405280929190818152602001828054610872906115d6565b80156108bf5780601f10610894576101008083540402835291602001916108bf565b820191906000526020600020905b8154815290600101906020018083116108a257829003601f168201915b5050505050908060010180546108d4906115d6565b80601f0160208091040260200160405190810160405280929190818152602001828054610900906115d6565b801561094d5780601f106109225761010080835404028352916020019161094d565b820191906000526020600020905b81548152906001019060200180831161093057829003601f168201915b5050505050908060020154905083565b60606001805480602002602001604051908101604052809291908181526020016000905b82821015610ae157838290600052602060002090600302016040518060600160405290816000820180546109b4906115d6565b80601f01602080910402602001604051908101604052809291908181526020018280546109e0906115d6565b8015610a2d5780601f10610a0257610100808354040283529160200191610a2d565b820191906000526020600020905b815481529060010190602001808311610a1057829003601f168201915b50505050508152602001600182018054610a46906115d6565b80601f0160208091040260200160405190810160405280929190818152602001828054610a72906115d6565b8015610abf5780601f10610a9457610100808354040283529160200191610abf565b820191906000526020600020905b815481529060010190602001808311610aa257829003601f168201915b5050505050815260200160028201548152505081526020019060010190610981565b50505050905090565b6060600360003373ffffffffffffffffffffffffffffffffffffffff1673ffffffffffffffffffffffffffffffffffffffff168152602001908152602001600020805480602002602001604051908101604052809291908181526020016000905b82821015610cab5783829060005260206000209060030201604051806060016040529081600082018054610b7e906115d6565b80601f0160208091040260200160405190810160405280929190818152602001828054610baa906115d6565b8015610bf75780601f10610bcc57610100808354040283529160200191610bf7565b820191906000526020600020905b815481529060010190602001808311610bda57829003601f168201915b50505050508152602001600182018054610c10906115d6565b80601f0160208091040260200160405190810160405280929190818152602001828054610c3c906115d6565b8015610c895780601f10610c5e57610100808354040283529160200191610c89565b820191906000526020600020905b815481529060010190602001808311610c6c57829003601f168201915b5050505050815260200160028201548152505081526020019060010190610b4b565b50505050905090565b60026020528060005260406000206000915090505481565b60004333600360003373ffffffffffffffffffffffffffffffffffffffff1673ffffffffffffffffffffffffffffffffffffffff168152602001908152602001600020805490508585604051602001610d29959493929190611b63565b604051602081830303815290604052805190602001209050600360003373ffffffffffffffffffffffffffffffffffffffff1673ffffffffffffffffffffffffffffffffffffffff16815260200190815260200160002080549050600460003373ffffffffffffffffffffffffffffffffffffffff1673ffffffffffffffffffffffffffffffffffffffff168152602001908152602001600020600083815260200190815260200160002081905550600360003373ffffffffffffffffffffffffffffffffffffffff1673ffffffffffffffffffffffffffffffffffffffff16815260200190815260200160002060405180606001604052808581526020018481526020018381525090806001815401808255809150506001900390600052602060002090600302016000909190919091506000820151816000019081610e7091906119ec565b506020820151816001019081610e8691906119ec565b50604082015181600201555050505050565b508054610ea4906115d6565b6000825580601f10610eb65750610ed5565b601f016020900490600052602060002090810190610ed49190610ed8565b5b50565b5b80821115610ef1576000816000905550600101610ed9565b5090565b6000604051905090565b600080fd5b600080fd5b6000819050919050565b610f1c81610f09565b8114610f2757600080fd5b50565b600081359050610f3981610f13565b92915050565b600060208284031215610f5557610f54610eff565b5b6000610f6384828501610f2a565b91505092915050565b600080fd5b600080fd5b6000601f19601f8301169050919050565b7f4e487b7100000000000000000000000000000000000000000000000000000000600052604160045260246000fd5b610fbf82610f76565b810181811067ffffffffffffffff82111715610fde57610fdd610f87565b5b80604052505050565b6000610ff1610ef5565b9050610ffd8282610fb6565b919050565b600067ffffffffffffffff82111561101d5761101c610f87565b5b61102682610f76565b9050602081019050919050565b82818337600083830152505050565b600061105561105084611002565b610fe7565b90508281526020810184848401111561107157611070610f71565b5b61107c848285611033565b509392505050565b600082601f83011261109957611098610f6c565b5b81356110a9848260208601611042565b91505092915050565b600080604083850312156110c9576110c8610eff565b5b600083013567ffffffffffffffff8111156110e7576110e6610f04565b5b6110f385828601611084565b925050602083013567ffffffffffffffff81111561111457611113610f04565b5b61112085828601611084565b9150509250929050565b6000819050919050565b61113d8161112a565b811461114857600080fd5b50565b60008135905061115a81611134565b92915050565b60006020828403121561117657611175610eff565b5b60006111848482850161114b565b91505092915050565b600081519050919050565b600082825260208201905092915050565b60005b838110156111c75780820151818401526020810190506111ac565b60008484015250505050565b60006111de8261118d565b6111e88185611198565b93506111f88185602086016111a9565b61120181610f76565b840191505092915050565b61121581610f09565b82525050565b6000606082019050818103600083015261123581866111d3565b9050818103602083015261124981856111d3565b9050611258604083018461120c565b949350505050565b600081519050919050565b600082825260208201905092915050565b6000819050602082019050919050565b600082825260208201905092915050565b60006112a88261118d565b6112b2818561128c565b93506112c28185602086016111a9565b6112cb81610f76565b840191505092915050565b6112df81610f09565b82525050565b60006060830160008301518482036000860152611302828261129d565b9150506020830151848203602086015261131c828261129d565b915050604083015161133160408601826112d6565b508091505092915050565b600061134883836112e5565b905092915050565b6000602082019050919050565b600061136882611260565b611372818561126b565b9350836020820285016113848561127c565b8060005b858110156113c057848403895281516113a1858261133c565b94506113ac83611350565b925060208a01995050600181019050611388565b50829750879550505050505092915050565b600060208201905081810360008301526113ec818461135d565b905092915050565b600073ffffffffffffffffffffffffffffffffffffffff82169050919050565b600061141f826113f4565b9050919050565b61142f81611414565b811461143a57600080fd5b50565b60008135905061144c81611426565b92915050565b60006020828403121561146857611467610eff565b5b60006114768482850161143d565b91505092915050565b6114888161112a565b82525050565b60006020820190506114a3600083018461147f565b92915050565b7f496e76616c6964207472616e73616374696f6e20686173680000000000000000600082015250565b60006114df601883611198565b91506114ea826114a9565b602082019050919050565b6000602082019050818103600083015261150e816114d2565b9050919050565b7f4e487b7100000000000000000000000000000000000000000000000000000000600052601160045260246000fd5b600061154f8261112a565b915061155a8361112a565b925082820390508181111561157257611571611515565b5b92915050565b7f4e487b7100000000000000000000000000000000000000000000000000000000600052603260045260246000fd5b7f4e487b7100000000000000000000000000000000000000000000000000000000600052602260045260246000fd5b600060028204905060018216806115ee57607f821691505b602082108103611601576116006115a7565b5b50919050565b600081549050611616816115d6565b9050919050565b60008190508160005260206000209050919050565b60006020601f8301049050919050565b600082821b905092915050565b60006008830261167f7fffffffffffffffffffffffffffffffffffffffffffffffffffffffffffffffff82611642565b6116898683611642565b95508019841693508086168417925050509392505050565b6000819050919050565b60006116c66116c16116bc8461112a565b6116a1565b61112a565b9050919050565b6000819050919050565b6116e0836116ab565b6116f46116ec826116cd565b84845461164f565b825550505050565b600090565b6117096116fc565b6117148184846116d7565b505050565b5b818110156117385761172d600082611701565b60018101905061171a565b5050565b601f82111561177d5761174e8161161d565b61175784611632565b81016020851015611766578190505b61177a61177285611632565b830182611719565b50505b505050565b600082821c905092915050565b60006117a060001984600802611782565b1980831691505092915050565b60006117b9838361178f565b9150826002028217905092915050565b8181036117d75750506118af565b6117e082611607565b67ffffffffffffffff8111156117f9576117f8610f87565b5b61180382546115d6565b61180e82828561173c565b6000601f83116001811461183d576000841561182b578287015490505b61183585826117ad565b8655506118a8565b601f19841661184b8761161d565b96506118568661161d565b60005b8281101561187e57848901548255600182019150600185019450602081019050611859565b8683101561189b5784890154611897601f89168261178f565b8355505b6001600288020188555050505b5050505050505b565b7f4e487b7100000000000000000000000000000000000000000000000000000000600052603160045260246000fd5b7f596f7520617265206e6f7420746865206f776e65722100000000000000000000600082015250565b6000611916601683611198565b9150611921826118e0565b602082019050919050565b6000602082019050818103600083015261194581611909565b9050919050565b7f53656e64206d6f72652065746820776974682074686520544f444f0000000000600082015250565b6000611982601b83611198565b915061198d8261194c565b602082019050919050565b600060208201905081810360008301526119b181611975565b9050919050565b60006119c38261112a565b91506119ce8361112a565b92508282019050808211156119e6576119e5611515565b5b92915050565b6119f58261118d565b67ffffffffffffffff811115611a0e57611a0d610f87565b5b611a1882546115d6565b611a2382828561173c565b600060209050601f831160018114611a565760008415611a44578287015190505b611a4e85826117ad565b865550611ab6565b601f198416611a648661161d565b60005b82811015611a8c57848901518255600182019150602085019450602081019050611a67565b86831015611aa95784890151611aa5601f89168261178f565b8355505b6001600288020188555050505b505050505050565b6000819050919050565b611ad9611ad48261112a565b611abe565b82525050565b60008160601b9050919050565b6000611af782611adf565b9050919050565b6000611b0982611aec565b9050919050565b611b21611b1c82611414565b611afe565b82525050565b600081905092915050565b6000611b3d8261118d565b611b478185611b27565b9350611b578185602086016111a9565b80840191505092915050565b6000611b6f8288611ac8565b602082019150611b7f8287611b10565b601482019150611b8f8286611ac8565b602082019150611b9f8285611b32565b9150611bab8284611b32565b9150819050969550505050505056fea2646970667358221220a6c59226aee1912c10c0d2151ad8e5fca7e7643b2f1e630df40a43521abd443064736f6c63430008180033",
    "linkReferences": {},
    "deployedLinkReferences": {}
}